:100000000C9462000C948A000C948A000C948A0070
:100010000C948A000C948A000C948A000C948A0038
:100020000C948A000C948A000C948A000C948A0028
:100030000C948A000C948A000C948A000C948A0018
:100040000C94B6050C948A000C9463010C94B101D5
:100050000C948A000C948A000C948A000C948A00F8
:100060000C948A000C948A000000000024002700F1
:100070002A0000000000250028002B0000000000DE
:1000800023002600290004040404040404040202DA
:100090000202020203030303030301020408102007
:1000A0004080010204081020010204081020000012
:1000B0000007000201000003040600000000000029
:1000C00000001D0311241FBECFEFD8E0DEBFCDBF5F
:1000D00013E0A0E0B1E0E6E5F3E102C005900D9287
:1000E000A23AB107D9F714E0A2EAB3E001C01D9229
:1000F000AD35B107E1F710E0C4ECD0E004C02297C1
:10010000FE010E94A509C23CD107C9F70E947303F2
:100110000C94A9090C9400000F931F9318C0009130
:10012000A2031091A3038EE00E948506080F191FF9
:100130001093A3030093A2038091A4038F5F809385
:10014000A4036AE070E080E090E00E9424068091C1
:10015000A4038A3020F382E00E9413078093A9034E
:100160006091A2037091A303882777FD8095982F53
:100170000E94470820E030E040E251E40E94AC07D2
:1001800021EE3AE740EA50E40E94FB0820E030E02C
:1001900040E85AE30E94FB086093A5037093A6030E
:1001A0008093A7039093A80382E394E060E071E05A
:1001B0000E94B9044091A5035091A6036091A70342
:1001C0007091A80382E394E022E030E00E94A00551
:1001D00082E394E060E171E00E94A30582E394E091
:1001E00062E171E00E94B90482E394E06091A903A6
:1001F0004AE050E00E945B041092A4031092A30313
:100200001092A20364E670E080E090E00E94240671
:100210001F910F9108950F931F9382E062E00E9457
:10022000A70602E314E0C80140E855E260E070E090
:100230000E94EC01C80162E271E00E94A305C801BE
:1002400068E671E00E94A305C8016EEA71E00E94B1
:10025000A305C8016DEE71E00E94A305C80162E12B
:1002600072E00E94A305C80163E572E00E94A30545
:10027000C80160E772E00E94A305C8016BEA72E062
:100280000E94A305C8016CEC72E00E94A305C8019E
:1002900061E073E00E94A305C8016CE173E00E9475
:1002A000A305C8016CE373E00E94A305C8010E9486
:1002B000AC0368E873E180E090E00E9424061F919F
:1002C0000F91089508951F920F920FB60F92112467
:1002D0002F933F934F938F939F93EF93FF9380912F
:1002E000C00082FD1DC04091C6002091EA033091FC
:1002F000EB032F5F3F4F2F7330708091EC03909191
:10030000ED032817390771F0E091EA03F091EB0350
:10031000E655FC4F40833093EB032093EA0302C081
:100320008091C600FF91EF919F918F914F913F91E6
:100330002F910F900FBE0F901F901895E0913E04E3
:10034000F0913F04E05CFF4F8191919120813181D8
:10035000821B930B8F739070892B11F00E946201A6
:1003600008951F920F920FB60F9211242F933F936F
:100370008F939F93EF93FF9320912E0430912F043E
:1003800080913004909131042817390731F480911D
:10039000C1008F7D8093C10014C0E0913004F091C2
:1003A0003104E251FC4F208180913004909131045E
:1003B00001968F7390709093310480933004209352
:1003C000C600FF91EF919F918F913F912F910F90D8
:1003D0000FBE0F901F901895AF92BF92DF92EF92D1
:1003E000FF920F931F93CF93DF93EC017A018B0160
:1003F000DD24403081EE580780E0680780E0780710
:1004000011F0DD24D39491E0A92EB12CEC89FD8963
:10041000DD2069F0C50108A002C0880F991F0A9469
:10042000E2F7808360E079E08DE390E005C0108220
:1004300060E874E88EE190E0A80197010E948109CC
:10044000215030404040504056954795379527956C
:1004500080E12030380720F0DD2011F0DD24D6CFF8
:10046000E889F9893083EA89FB89208319A2EE891A
:10047000FF89408121E030E0C9010C8C02C0880F67
:10048000991F0A94E2F7482B4083EE89FF89408147
:10049000C9010D8C02C0880F991F0A94E2F7482BFE
:1004A0004083EE89FF894081C9010E8C02C0880F0C
:1004B000991F0A94E2F7482B4083EE89FF898081D7
:1004C0000F8C02C0220F331F0A94E2F720952823D5
:1004D0002083DF91CF911F910F91FF90EF90DF90DC
:1004E000BF90AF900895DC011C96ED91FC911D9793
:1004F000E05CFF4F2191319180819181281B390B64
:100500002F733070C9010895DC011C96ED91FC91A8
:100510001D97E05CFF4F20813181E054F040DF0106
:10052000AE5BBF4F8D919C9111972817390719F435
:100530002FEF3FEF07C08D919C91E80FF91F80814D
:10054000282F30E0C9010895DC011C96ED91FC9143
:100550001D97E05CFF4F20813181E054F040DF01C6
:10056000AE5BBF4F8D919C9111972817390719F4F5
:100570002FEF3FEF10C08D919C911197E80FF91F5D
:1005800020818D919C91119701968F739070119697
:100590009C938E9330E0C9010895DC0191968C9173
:1005A0009197882339F05496ED91FC91559780816D
:1005B00086FFF9CF91961C920895CF93DF93EC01BB
:1005C000EE85FF85E05CFF4F20813181E054F040F3
:1005D0002F5F3F4F2F733070DF01AE5BBF4F8D91A8
:1005E0009C91119728173907D1F3E05CFF4F808168
:1005F0009181E054F040E80FF91F6083EE85FF859C
:10060000E05CFF4F31832083EE89FF89208181E008
:1006100090E00F8C02C0880F991F0A94E2F7282BF4
:10062000208381E089A3EC89FD89808180648083B7
:1006300081E090E0DF91CF910895109235041092FF
:10064000340488EE93E0A0E0B0E080933604909309
:100650003704A0933804B093390486E993E090936B
:100660003304809332048AEA93E090933F048093AA
:100670003E048EEE93E0909341048093400485EC19
:1006800090E0909343048093420484EC90E0909334
:1006900045048093440480EC90E090934704809359
:1006A000460481EC90E0909349048093480482ECE6
:1006B00090E090934B0480934A0486EC90E09093F2
:1006C0004D0480934C0484E080934E0483E0809337
:1006D0004F0487E08093500485E08093510481E0CB
:1006E000809352040895CF93DF930E944A060E949C
:1006F0000B01CEE9D1E00E948C002097E1F30E942B
:100700009E01F9CFCF92DF92EF92FF920F931F934A
:10071000CF93DF937C016B018A01C0E0D0E00FC072
:10072000D6016D916D01D701ED91FC910190F081A1
:10073000E02DC7010995C80FD91F015010400115C0
:10074000110571F7CE01DF91CF911F910F91FF90AD
:10075000EF90DF90CF900895EF92FF920F931F9349
:100760008C01DC01ED91FC910190F081E02D6DE0B8
:1007700009957C01D801ED91FC910190F081E02D6B
:10078000C8016AE009959C012E0D3F1DC9011F910A
:100790000F91FF90EF900895CF93DF93EC016115D7
:1007A000710519F420E030E00FC0DB010D9000204E
:1007B000E9F71197A61BB70BE881F9810280F38155
:1007C000E02DAD0109959C01C901DF91CF910895FC
:1007D0004F925F927F928F929F92AF92BF92CF92F1
:1007E000DF92EF92FF920F931F93DF93CF93CDB7DA
:1007F000DEB7A1970FB6F894DEBF0FBECDBF2C01B8
:10080000742ECB01223008F42AE019A231E2C32E63
:10081000D12CCC0EDD1E822E9924AA24BB24672D58
:10082000752FA50194010E94810979018A01C801EF
:10083000B701A50194010E946209472D461B089447
:10084000C108D1084A3014F4405D01C0495CF6018A
:100850004083E114F1040105110521F07E2C5F2D88
:10086000C801DDCFC201B6010E94CC03A1960FB62C
:10087000F894DEBF0FBECDBFCF91DF911F910F91D6
:10088000FF90EF90DF90CF90BF90AF909F908F90B0
:100890007F905F904F900895DC012115310541F460
:1008A000ED91FC910190F081E02D642F0995089560
:1008B0000E94E8030895CF92DF92EF92FF920F9388
:1008C0001F936C01E62E9A01FF2400E010E0B801AE
:1008D000A7010E944C048C01C6010E94AC03080FC2
:1008E000191FC8011F910F91FF90EF90DF90CF90DB
:1008F0000895CF92DF92EF92FF920F931F93CF93C1
:10090000DF93EC016A017B012115310541F4E88197
:10091000F9810190F081E02D642F09951FC02A30E4
:100920003105D1F477FF17C0E881F9810190F0819A
:10093000E02D6DE209958C0144275527BA014C1929
:100940005D096E097F09CE012AE00E94E803980143
:10095000280F391F04C02AE00E94E8039C01C90146
:10096000DF91CF911F910F91FF90EF90DF90CF908B
:1009700008950E94CC0308957F928F929F92AF9228
:10098000BF92CF92DF92EF92FF920F931F93CF937C
:10099000DF934C017A018B01722ECB01BA01A801C1
:1009A00097010E945E09882321F0C40163E873E087
:1009B00021C0C0E0D0E057016801E894D7F8C60133
:1009C000B5012FEF3FEF4FE75FE70E945E098823F5
:1009D00051F4C601B5012FEF3FEF4FE75FE70E94EB
:1009E000A807181614F0C1E0D0E0219739F0C4012F
:1009F00067E873E00E94CC03EC0193C0C801B70123
:100A00002FEF3FEF4FE75FE40E94F708181654F00E
:100A1000C801B7012FEF3FEF4FE75FEC0E94A80737
:100A2000882324F4C4016BE873E0E4CFC801B70164
:100A300020E030E040E050E00E94A80787FD03C0BE
:100A4000C0E0D0E00EC0D401ED91FC910190F081A6
:100A5000E02DC4016DE20995EC0117FB109517F923
:100A6000109520E030E040E05FE3DD240BC0CA01D8
:100A7000B90120E030E040E251E40E94AC079B0164
:100A8000AC01D394D71498F3C801B7010E9444076E
:100A90005B016C010E9419087B018C01C401B80143
:100AA000A7012AE030E00E944C04C80FD91F77202C
:100AB00039F0C4016FE873E00E94CC03C80FD91F5E
:100AC000C801B7010E9445089B01AC01C601B501F0
:100AD0000E94430724C020E030E040E251E40E943D
:100AE000FB087B018C010E9414085B016C01CC2483
:100AF000B7FCC094DC2CC401B601A5012AE030E0AB
:100B00000E947904C80FD91FC601B5010E94470889
:100B10009B01AC01C801B7010E9443077A9477207A
:100B2000D1F6CE01DF91CF911F910F91FF90EF9001
:100B3000DF90CF90BF90AF909F908F907F9008955F
:100B40000E94BC040895EF92FF920F931F937C01C3
:100B50000E94CC038C01C7010E94AC03080F191F2F
:100B6000C8011F910F91FF90EF9008951F920F926F
:100B70000FB60F9211242F933F938F939F93AF93B0
:100B8000BF938091580490915904A0915A04B09158
:100B90005B0430915C040196A11DB11D232F2D5FD4
:100BA0002D3720F02D570196A11DB11D20935C0417
:100BB0008093580490935904A0935A04B0935B0413
:100BC0008091540490915504A0915604B09157041B
:100BD0000196A11DB11D8093540490935504A093D8
:100BE0005604B0935704BF91AF919F918F913F915D
:100BF0002F910F900FBE0F901F9018959FB7F894EC
:100C0000209154043091550440915604509157045A
:100C100086B5A89B06C08F3F21F02F5F3F4F4F4FF7
:100C20005F4F9FBF542F432F322F2227280F311D94
:100C3000411D511D82E0220F331F441F551F8A950D
:100C4000D1F7B901CA010895EF92FF920F931F9354
:100C5000CF93DF937B018C010E94FE05EB010EC058
:100C60000E94FE056C1B7D0B685E7340C8F3089400
:100C7000E108F10801091109C851DC4FE114F10440
:100C80000105110569F7DF91CF911F910F91FF9039
:100C9000EF900895789484B5826084BD84B58160B6
:100CA00084BD85B5826085BD85B5816085BDEEE674
:100CB000F0E0808181608083E1E8F0E01082808153
:100CC00082608083808181608083E0E8F0E08081C1
:100CD00081608083E1EBF0E0808184608083E0EBE1
:100CE000F0E0808181608083EAE7F0E080818460C9
:100CF0008083808182608083808181608083808125
:100D0000806880831092C1000895982F8E3008F07B
:100D10009E509770809191038295880F880F807CF8
:100D2000892B80937C0080917A00806480937A0084
:100D300080917A0086FDFCCF209178004091790067
:100D4000942F80E030E0282B392BC9010895CF93F0
:100D5000DF93482F50E0CA0186569F4FFC01349123
:100D60004A575F4FFA018491882369F190E0880F18
:100D7000991FFC01E859FF4FA591B491FC01EE5871
:100D8000FF4FC591D491662351F42FB7F8948C91FD
:100D9000932F909589238C93888189230BC062308F
:100DA00061F42FB7F8948C91932F909589238C93AD
:100DB0008881832B88832FBF06C09FB7F8948C91BE
:100DC000832B8C939FBFDF91CF910895833071F077
:100DD000843028F48130A1F0823021F514C08630AF
:100DE000B1F08730D1F08430E9F404C08091800004
:100DF0008F7703C0809180008F7D8093800008955D
:100E000084B58F7702C084B58F7D84BD08958091AD
:100E1000B0008F778093B00008958091B0008F7DEF
:100E20008093B00008950F931F93482F50E0CA019C
:100E300082559F4FFC012491CA0186569F4FFC01A9
:100E400004914A575F4FFA011491112319F420E0DD
:100E500030E015C0222319F0822F0E94E606812F70
:100E600090E0880F991F84589F4FFC01A591B49181
:100E70008C9120E030E0802311F021E030E0C901C6
:100E80001F910F9108955058BB27AA270ED075C106
:100E900066D130F06BD120F031F49F3F11F41EF495
:100EA0005BC10EF4E095E7FB51C1E92F77D180F3E8
:100EB000BA17620773078407950718F071F49EF557
:100EC0008FC10EF4E0950B2EBA2FA02D0B01B901A6
:100ED00090010C01CA01A0011124FF27591B99F0B0
:100EE000593F50F4503E68F11A16F040A22F232FBC
:100EF000342F4427585FF3CF469537952795A7950C
:100F0000F0405395C9F77EF41F16BA0B620B730BB2
:100F1000840BBAF09150A1F0FF0FBB1F661F771F23
:100F2000881FC2F70EC0BA0F621F731F841F48F4D8
:100F3000879577956795B795F7959E3F08F0B3CF5E
:100F40009395880F08F09927EE0F97958795089548
:100F5000D9D008F481E008950CD00FC107D140F03A
:100F6000FED030F021F45F3F19F0F0C0511139C1CB
:100F7000F3C014D198F39923C9F35523B1F3951B0A
:100F8000550BBB27AA2762177307840738F09F5FAA
:100F90005F4F220F331F441FAA1FA9F333D00E2E19
:100FA0003AF0E0E830D091505040E695001CCAF786
:100FB00029D0FE2F27D0660F771F881FBB1F26174B
:100FC00037074807AB07B0E809F0BB0B802DBF011E
:100FD000FF2793585F4F2AF09E3F510568F0B6C037
:100FE00000C15F3FECF3983EDCF3869577956795FB
:100FF000B795F7959F5FC9F7880F911D96958795CF
:1010000097F90895E1E0660F771F881FBB1F6217ED
:1010100073078407BA0720F0621B730B840BBA0BAB
:10102000EE1F88F7E095089504D06894B111D9C0F7
:101030000895BCD088F09F5790F0B92F9927B751E9
:10104000A0F0D1F0660F771F881F991F1AF0BA958C
:10105000C9F712C0B13081F0C3D0B1E00895C0C06B
:10106000672F782F8827B85F39F0B93FCCF3869582
:1010700077956795B395D9F73EF4909580957095DF
:1010800061957F4F8F4F9F4F0895E89409C097FB5C
:101090003EF490958095709561957F4F8F4F9F4F4F
:1010A0009923A9F0F92F96E9BB279395F695879593
:1010B00077956795B795F111F8CFFAF4BB0F11F456
:1010C00060FF1BC06F5F7F4F8F4F9F4F16C08823FD
:1010D00011F096E911C0772321F09EE8872F762F33
:1010E00005C0662371F096E8862F70E060E02AF074
:1010F0009A95660F771F881FDAF7880F9695879560
:1011000097F90895990F0008550FAA0BE0E8FEEF34
:1011100016161706E807F907C0F012161306E407BB
:10112000F50798F0621B730B840B950B39F40A26B4
:1011300061F0232B242B252B21F408950A2609F492
:10114000A140A6958FEF811D811D089597F99F6796
:1011500080E870E060E008959FEF80EC089500243F
:101160000A941616170618060906089500240A940C
:1011700012161306140605060895092E0394000C92
:1011800011F4882352F0BB0F40F4BF2B11F460FF21
:1011900004C06F5F7F4F8F4F9F4F089557FD90584A
:1011A000440F551F59F05F3F71F04795880F97FB2B
:1011B000991F61F09F3F79F08795089512161306E5
:1011C0001406551FF2CF4695F1DF08C01616170614
:1011D0001806991FF1CF8695710561050894089549
:1011E000E894BB2766277727CB0197F908958ADF14
:1011F00008F48FEF08950BD0C0CFB1DF28F0B6DF31
:1012000018F0952309F0A2CFA7CF1124EACFC6DFAB
:10121000A0F3959FD1F3950F50E0551F629FF00109
:10122000729FBB27F00DB11D639FAA27F00DB11D62
:10123000AA1F649F6627B00DA11D661F829F2227EB
:10124000B00DA11D621F739FB00DA11D621F839F72
:10125000A00D611D221F749F3327A00D611D231F48
:10126000849F600D211D822F762F6A2F11249F5796
:1012700050408AF0E1F088234AF0EE0FFF1FBB1FB9
:10128000661F771F881F91505040A9F79E3F510558
:1012900070F05CCFA6CF5F3FECF3983EDCF3869511
:1012A00077956795B795F795E7959F5FC1F7FE2B03
:1012B000880F911D9695879597F9089523DF880BE0
:1012C000990B0895629FD001739FF001829FE00DFA
:1012D000F11D649FE00DF11D929FF00D839FF00DB5
:1012E000749FF00D659FF00D9927729FB00DE11D61
:1012F000F91F639FB00DE11DF91FBD01CF0111243E
:101300000895A1E21A2EAA1BBB1BFD010DC0AA1F46
:10131000BB1FEE1FFF1FA217B307E407F50720F05E
:10132000A21BB30BE40BF50B661F771F881F991FD9
:101330001A9469F760957095809590959B01AC0122
:10134000BD01CF010895EE0FFF1F0590F491E02D30
:061350000994F894FFCFA0
:10135600416E616C6F67202056616C75653A20009E
:1013660056004469676974616C2056616C75653A0C
:101376002000494353746174696F6E2045303033E1
:101386004120436F6D70617261746F72204D6F649E
:10139600756C65204C4D3339332041646A7573741E
:1013A60061626C652053656E7369746976697479D8
:1013B60020432044656D6F003D3D3D3D3D3D3D3D37
:1013C6003D3D3D3D3D3D3D3D3D3D3D3D3D3D3D3D47
:1013D6003D3D3D3D3D3D3D3D3D3D3D3D3D3D3D3D37
:1013E6003D3D3D3D3D3D3D3D3D3D3D3D3D3D3D3D27
:1013F6003D3D3D3D3D3D3D3D3D3D3D3D3D00526517
:101406006164732076616C7565206F6E20616E6114
:101416006C6F6720696E7075742041302C2064698A
:10142600676974616C20696E707574203220616E14
:10143600642063616C63756C6174657300566F6CD0
:10144600746167652066726F6D20616E616C6F678F
:10145600206F757470757420284130292066726F6C
:101466006D00494353746174696F6E2045303033A3
:101476004120436F6D70617261746F72204D6F64AD
:10148600756C65204C4D3339332041646A7573742D
:1014960061626C652053656E7369746976697479E7
:1014A600204300596F752063616E20627579207440
:1014B600686973206D6F64756C652066726F6D0068
:1014C600687474703A2F2F7777772E696373746117
:1014D60074696F6E2E636F6D2F70726F64756374AF
:1014E6005F696E666F2E7068703F70726F647563A9
:1014F60074735F69643D3333303300417574686FCC
:10150600722020202020202020202020203A204D3C
:101516006F68616D61642044616E6900596F75740E
:10152600756265206368616E6E656C2020203A20C6
:10153600687474703A2F2F2F7777772E796F7574BA
:101546007562652E636F6D2F64616E7374616D6174
:1015560000466F6C6C6F77206D79205477697474D0
:101566006572203A20404D44344E31004461746522
:1015760020202020202020202020202020203A204B
:101586003135204D61792032303134003D3D3D3DCD
:101596003D3D3D3D3D3D3D3D3D3D3D3D3D3D3D3D75
:1015A6003D3D3D3D3D3D3D3D3D3D3D3D3D3D3D3D65
:1015B6003D3D3D3D3D3D3D3D3D3D3D3D3D3D3D3D55
:1015C6003D3D3D3D3D3D3D3D3D3D3D3D3D3D3D3D45
:1015D6003D3D006E616E00696E66006F7666002E98
:1015E600000100000000DD0282037302A4028402EF
:0215F600CD0224
:00000001FF
